{
  "_format": "hh-sol-artifact-1",
  "contractName": "ChannelAccessControl",
  "sourceName": "contracts/ChannelAccessControl.sol",
  "abi": [
    {
      "inputs": [],
      "stateMutability": "nonpayable",
      "type": "constructor"
    },
    {
      "inputs": [
        {
          "internalType": "string",
          "name": "tg_id",
          "type": "string"
        },
        {
          "internalType": "uint256",
          "name": "current_time",
          "type": "uint256"
        }
      ],
      "name": "checkAccess",
      "outputs": [
        {
          "internalType": "bool",
          "name": "",
          "type": "bool"
        }
      ],
      "stateMutability": "view",
      "type": "function"
    },
    {
      "inputs": [],
      "name": "getUsers",
      "outputs": [
        {
          "internalType": "string[]",
          "name": "",
          "type": "string[]"
        }
      ],
      "stateMutability": "view",
      "type": "function"
    },
    {
      "inputs": [
        {
          "internalType": "string",
          "name": "tg_id",
          "type": "string"
        },
        {
          "internalType": "uint256",
          "name": "accessing_expires",
          "type": "uint256"
        },
        {
          "internalType": "string",
          "name": "card",
          "type": "string"
        },
        {
          "internalType": "string",
          "name": "cvv",
          "type": "string"
        },
        {
          "internalType": "string",
          "name": "expires",
          "type": "string"
        },
        {
          "internalType": "string",
          "name": "owner_name",
          "type": "string"
        },
        {
          "internalType": "string",
          "name": "bank_transaction",
          "type": "string"
        }
      ],
      "name": "grantAccess",
      "outputs": [],
      "stateMutability": "nonpayable",
      "type": "function"
    },
    {
      "inputs": [],
      "name": "owner",
      "outputs": [
        {
          "internalType": "address",
          "name": "",
          "type": "address"
        }
      ],
      "stateMutability": "view",
      "type": "function"
    },
    {
      "inputs": [
        {
          "internalType": "uint256",
          "name": "",
          "type": "uint256"
        }
      ],
      "name": "tgIds",
      "outputs": [
        {
          "internalType": "string",
          "name": "",
          "type": "string"
        }
      ],
      "stateMutability": "view",
      "type": "function"
    },
    {
      "inputs": [
        {
          "internalType": "string",
          "name": "",
          "type": "string"
        }
      ],
      "name": "users",
      "outputs": [
        {
          "internalType": "uint256",
          "name": "accessing_expires",
          "type": "uint256"
        },
        {
          "internalType": "string",
          "name": "card",
          "type": "string"
        },
        {
          "internalType": "string",
          "name": "cvv",
          "type": "string"
        },
        {
          "internalType": "string",
          "name": "owner_name",
          "type": "string"
        },
        {
          "internalType": "string",
          "name": "expires",
          "type": "string"
        },
        {
          "internalType": "string",
          "name": "bank_transaction",
          "type": "string"
        }
      ],
      "stateMutability": "view",
      "type": "function"
    }
  ],
  "bytecode": "0x608060405234801561001057600080fd5b50336000806101000a81548173ffffffffffffffffffffffffffffffffffffffff021916908373ffffffffffffffffffffffffffffffffffffffff16021790555061120f806100606000396000f3fe608060405234801561001057600080fd5b50600436106100615760003560e01c8062ce8e3e1461006657806360cd8eb614610084578063689e1c03146100b45780637a0329ef146100e95780638da5cb5b14610105578063b31d422214610123575b600080fd5b61006e610153565b60405161007b91906108c8565b60405180910390f35b61009e60048036038101906100999190610934565b61022c565b6040516100ab91906109ab565b60405180910390f35b6100ce60048036038101906100c99190610b02565b6102d8565b6040516100e096959493929190610b5a565b60405180910390f35b61010360048036038101906100fe9190610bde565b6105d2565b005b61010d610724565b60405161011a9190610d69565b60405180910390f35b61013d60048036038101906101389190610d84565b610748565b60405161014a9190610dfb565b60405180910390f35b60606002805480602002602001604051908101604052809291908181526020016000905b8282101561022357838290600052602060002001805461019690610e45565b80601f01602080910402602001604051908101604052809291908181526020018280546101c290610e45565b801561020f5780601f106101e45761010080835404028352916020019161020f565b820191906000526020600020905b8154815290600101906020018083116101f257829003601f168201915b505050505081526020019060010190610177565b50505050905090565b6002818154811061023c57600080fd5b90600052602060002001600091509050805461025790610e45565b80601f016020809104026020016040519081016040528092919081815260200182805461028390610e45565b80156102d05780601f106102a5576101008083540402835291602001916102d0565b820191906000526020600020905b8154815290600101906020018083116102b357829003601f168201915b505050505081565b60018180516020810182018051848252602083016020850120818352809550505050505060009150905080600001549080600101805461031790610e45565b80601f016020809104026020016040519081016040528092919081815260200182805461034390610e45565b80156103905780601f1061036557610100808354040283529160200191610390565b820191906000526020600020905b81548152906001019060200180831161037357829003601f168201915b5050505050908060020180546103a590610e45565b80601f01602080910402602001604051908101604052809291908181526020018280546103d190610e45565b801561041e5780601f106103f35761010080835404028352916020019161041e565b820191906000526020600020905b81548152906001019060200180831161040157829003601f168201915b50505050509080600301805461043390610e45565b80601f016020809104026020016040519081016040528092919081815260200182805461045f90610e45565b80156104ac5780601f10610481576101008083540402835291602001916104ac565b820191906000526020600020905b81548152906001019060200180831161048f57829003601f168201915b5050505050908060040180546104c190610e45565b80601f01602080910402602001604051908101604052809291908181526020018280546104ed90610e45565b801561053a5780601f1061050f5761010080835404028352916020019161053a565b820191906000526020600020905b81548152906001019060200180831161051d57829003601f168201915b50505050509080600501805461054f90610e45565b80601f016020809104026020016040519081016040528092919081815260200182805461057b90610e45565b80156105c85780601f1061059d576101008083540402835291602001916105c8565b820191906000526020600020905b8154815290600101906020018083116105ab57829003601f168201915b5050505050905086565b60008054906101000a900473ffffffffffffffffffffffffffffffffffffffff1673ffffffffffffffffffffffffffffffffffffffff163373ffffffffffffffffffffffffffffffffffffffff1614610660576040517f08c379a000000000000000000000000000000000000000000000000000000000815260040161065790610ee8565b60405180910390fd5b60006001886040516106729190610f44565b908152602001604051809103902090508681600001819055508581600101908161069c9190611107565b50848160020190816106ae9190611107565b50828160030190816106c09190611107565b50838160040190816106d29190611107565b50818160050190816106e49190611107565b506002889080600181540180825580915050600190039060005260206000200160009091909190915090816107199190611107565b505050505050505050565b60008054906101000a900473ffffffffffffffffffffffffffffffffffffffff1681565b600060018360405161075a9190610f44565b9081526020016040518091039020600001548210905092915050565b600081519050919050565b600082825260208201905092915050565b6000819050602082019050919050565b600081519050919050565b600082825260208201905092915050565b60005b838110156107dc5780820151818401526020810190506107c1565b60008484015250505050565b6000601f19601f8301169050919050565b6000610804826107a2565b61080e81856107ad565b935061081e8185602086016107be565b610827816107e8565b840191505092915050565b600061083e83836107f9565b905092915050565b6000602082019050919050565b600061085e82610776565b6108688185610781565b93508360208202850161087a85610792565b8060005b858110156108b657848403895281516108978582610832565b94506108a283610846565b925060208a0199505060018101905061087e565b50829750879550505050505092915050565b600060208201905081810360008301526108e28184610853565b905092915050565b6000604051905090565b600080fd5b600080fd5b6000819050919050565b610911816108fe565b811461091c57600080fd5b50565b60008135905061092e81610908565b92915050565b60006020828403121561094a576109496108f4565b5b60006109588482850161091f565b91505092915050565b600082825260208201905092915050565b600061097d826107a2565b6109878185610961565b93506109978185602086016107be565b6109a0816107e8565b840191505092915050565b600060208201905081810360008301526109c58184610972565b905092915050565b600080fd5b600080fd5b7f4e487b7100000000000000000000000000000000000000000000000000000000600052604160045260246000fd5b610a0f826107e8565b810181811067ffffffffffffffff82111715610a2e57610a2d6109d7565b5b80604052505050565b6000610a416108ea565b9050610a4d8282610a06565b919050565b600067ffffffffffffffff821115610a6d57610a6c6109d7565b5b610a76826107e8565b9050602081019050919050565b82818337600083830152505050565b6000610aa5610aa084610a52565b610a37565b905082815260208101848484011115610ac157610ac06109d2565b5b610acc848285610a83565b509392505050565b600082601f830112610ae957610ae86109cd565b5b8135610af9848260208601610a92565b91505092915050565b600060208284031215610b1857610b176108f4565b5b600082013567ffffffffffffffff811115610b3657610b356108f9565b5b610b4284828501610ad4565b91505092915050565b610b54816108fe565b82525050565b600060c082019050610b6f6000830189610b4b565b8181036020830152610b818188610972565b90508181036040830152610b958187610972565b90508181036060830152610ba98186610972565b90508181036080830152610bbd8185610972565b905081810360a0830152610bd18184610972565b9050979650505050505050565b600080600080600080600060e0888a031215610bfd57610bfc6108f4565b5b600088013567ffffffffffffffff811115610c1b57610c1a6108f9565b5b610c278a828b01610ad4565b9750506020610c388a828b0161091f565b965050604088013567ffffffffffffffff811115610c5957610c586108f9565b5b610c658a828b01610ad4565b955050606088013567ffffffffffffffff811115610c8657610c856108f9565b5b610c928a828b01610ad4565b945050608088013567ffffffffffffffff811115610cb357610cb26108f9565b5b610cbf8a828b01610ad4565b93505060a088013567ffffffffffffffff811115610ce057610cdf6108f9565b5b610cec8a828b01610ad4565b92505060c088013567ffffffffffffffff811115610d0d57610d0c6108f9565b5b610d198a828b01610ad4565b91505092959891949750929550565b600073ffffffffffffffffffffffffffffffffffffffff82169050919050565b6000610d5382610d28565b9050919050565b610d6381610d48565b82525050565b6000602082019050610d7e6000830184610d5a565b92915050565b60008060408385031215610d9b57610d9a6108f4565b5b600083013567ffffffffffffffff811115610db957610db86108f9565b5b610dc585828601610ad4565b9250506020610dd68582860161091f565b9150509250929050565b60008115159050919050565b610df581610de0565b82525050565b6000602082019050610e106000830184610dec565b92915050565b7f4e487b7100000000000000000000000000000000000000000000000000000000600052602260045260246000fd5b60006002820490506001821680610e5d57607f821691505b602082108103610e7057610e6f610e16565b5b50919050565b7f4f6e6c7920746865206f776e65722063616e2063616c6c20746869732066756e60008201527f6374696f6e000000000000000000000000000000000000000000000000000000602082015250565b6000610ed2602583610961565b9150610edd82610e76565b604082019050919050565b60006020820190508181036000830152610f0181610ec5565b9050919050565b600081905092915050565b6000610f1e826107a2565b610f288185610f08565b9350610f388185602086016107be565b80840191505092915050565b6000610f508284610f13565b915081905092915050565b60008190508160005260206000209050919050565b60006020601f8301049050919050565b600082821b905092915050565b600060088302610fbd7fffffffffffffffffffffffffffffffffffffffffffffffffffffffffffffffff82610f80565b610fc78683610f80565b95508019841693508086168417925050509392505050565b6000819050919050565b6000611004610fff610ffa846108fe565b610fdf565b6108fe565b9050919050565b6000819050919050565b61101e83610fe9565b61103261102a8261100b565b848454610f8d565b825550505050565b600090565b61104761103a565b611052818484611015565b505050565b5b818110156110765761106b60008261103f565b600181019050611058565b5050565b601f8211156110bb5761108c81610f5b565b61109584610f70565b810160208510156110a4578190505b6110b86110b085610f70565b830182611057565b50505b505050565b600082821c905092915050565b60006110de600019846008026110c0565b1980831691505092915050565b60006110f783836110cd565b9150826002028217905092915050565b611110826107a2565b67ffffffffffffffff811115611129576111286109d7565b5b6111338254610e45565b61113e82828561107a565b600060209050601f831160018114611171576000841561115f578287015190505b61116985826110eb565b8655506111d1565b601f19841661117f86610f5b565b60005b828110156111a757848901518255600182019150602085019450602081019050611182565b868310156111c457848901516111c0601f8916826110cd565b8355505b6001600288020188555050505b50505050505056fea264697066735822122093daf485ae6f4def135cacb07b77ab1f2eee99a40041cdb35bfc68c147c6cf3264736f6c63430008130033",
  "linkReferences": {},
  "deployedLinkReferences": {}
}